:0A000E0030313233343536373839DB
:10079700110C506572696F6420202020202E2020C4
:1007A7006D73001121526164696F20202020202E73
:1007B70020202020250011324F5554204F4620522B
:1007C700414E4745202120200011435354415254A4
:1007D700205245534554202E2E2E2000045400004D
:1007E7000000045800000000045C00000000041D25
:0A07F70000000000040800000000EC
:10091D00D3EF9400EE6480948040147D647C00EDF0
:0F092D001D70011CED4C70F7EF1F70E41E80E190
:01093C002298
:10084600758919758CFF758A9AD28CD2A9758DFF18
:10085600758B9AD28ED2ABE4F557F556F555F5540D
:10086600F55BF55AF559F558F55FF55EF55DF55CFE
:05087600D2A8D2882287
:03000B000208D513
:1008D500C0E0C0D0758CFF758A9AE5572401F5579D
:1008E500E43556F556E43555F555E43554F554D00B
:0408F500D0D0E0324D
:03001B000208F9DF
:1008F900C0E0C0D0758DFF758B9AE55B2401F55B6F
:10090900E4355AF55AE43559F559E43558F558D0CE
:04091900D0D0E03228
:10093D00D2A0D2A28F807F017E0012091DC2A27F9C
:06094D00017E0002091DFD
:10095300C2A0D2A28F807F027E0012091DC2A27F95
:06096300027E0002091DE6
:100969007F381209537F0C1209537F061209537FEE
:04097900010209531B
:1008AC007F80120953E4FB740C2BF8E6FF12093D10
:1008BC000BBB10F37FC0120953E4FB74212BF8E639
:0808CC00FF12093D0BBB10F304
:0108D4002201
:0300030002087B75
:10087B00C0E0C0D075D000C000C001C002E4FAF9DE
:10088B00F8E55F2401F55FEA355EF55EE9355DF568
:10089B005DE8355CF55CD002D001D000D0D0D0E063
:0108AB00321A
:10045E00D2AFC2A1C2A21209697F8012095312083B
:10046E00460207057FFF7EE07DF57C05AB5BAA5A51
:10047E00A959A858D31202914003120846AF5FAE95
:10048E005EAD5DAC5CEC4D4E4F6038EC1201C4C0FD
:10049E0004C005C006C007AF5BAE5AAD59AC58ECF0
:1004AE001201C4D003D002D001D000120127E4FB08
:1004BE00FA79A0783F12001E1202028F0B8E0A8D5F
:1004CE00098C08AF0BAE0AAD09AC08EC4D4E4F606F
:1004DE0041AF5BAE5AAD59AC58EC1201C4C004C06A
:1004EE0005C006C007AF57AE56AD55AC54EC120161
:1004FE00C4D003D002D001D0001201277B007A4075
:10050E00791C784612001E1202028F208E1F8D1E3D
:10051E008C1D7FA07E867D017C00AB0BAA0AA909EB
:10052E00A808D31202914028780C7C007D007B0035
:10053E007A00793212037378217C007D007B007A79
:10054E000079431203731208AC7FE87E0302091D83
:10055E00E47B107A27F9F8AF0BAE0AAD09AC08129E
:10056E000802E47B0AFAF9F8120802AE02AF038E13
:10057E00608F61740E2FF58274003EF583E493F55F
:10058E0013E47BE87A03F9F8AF0BAE0AAD09AC08B9
:10059E00120802E47B0AFAF9F8120802AE02AF035F
:1005AE008E608F61740E2FF58274003EF583E49396
:1005BE00F514E47B64FAF9F8AF0BAE0AAD09AC089A
:1005CE00120802E47B0AFAF9F8120802AE02AF032F
:1005DE008E608F61740E2FF58274003EF583E49366
:1005EE00F515E47B0AFAF9F8AF0BAE0AAD09AC08C3
:1005FE00120802E47B0AFAF9F8120802AE02AF03FF
:10060E008E608F61740E2FF58274003EF583E49335
:10061E00F51675172EE47B0AFAF9F8AF0BAE0AAD94
:10062E0009AC08120802AE02AF038E608F61740E21
:10063E002FF58274003EF583E493F518E47BE87A97
:10064E0003F9F8AF20AE1FAD1EAC1D120802E47BFD
:10065E000AFAF9F8120802AE02AF038E608F6174C7
:10066E000E2FF58274003EF583E493F529E47B6446
:10067E00FAF9F8AF20AE1FAD1EAC1D120802E47BD6
:10068E000AFAF9F8120802AE02AF038E608F617497
:10069E000E2FF58274003EF583E493F52A752B2E0A
:1006AE00E47B0AFAF9F8AF20AE1FAD1EAC1D12089E
:1006BE0002E47B0AFAF9F8120802AE02AF038E606A
:1006CE008F61740E2FF58274003EF583E493F52C42
:1006DE00E47B0AFAF9F8AF20AE1FAD1EAC1D12086E
:1006EE0002AE02AF038E608F61740E2FF58274001E
:0D06FE003EF583E493F52D1208AC02047262
:10001E00EC4D6011E8497017ED33EC3304600DE4DC
:10002E00FCFFFEFD22E933E8330470F802026E1283
:10003E00023958046009E4CC248150062850090284
:10004E000278284003020275C0E0EB4A7044B98082
:10005E0006D0E0FB020264EF4E701CBD8008EBFF81
:10006E00EAFEE9FD80EBE98DF0A4FEE5F002010762
:10007E00E9CDF9EAFEEBFFEF89F0A4FCE5F0CE89BD
:10008E00F0A42EFFE435F0CD89F0A42DFEE435F07A
:10009E008067EF4E7005BD80D780C3EF8BF0A4ACA8
:1000AE00F0EE8BF0A42CFCE435F0F8EF8AF0A42CE3
:1000BE00E5F038FCE433CB8DF0A42CFCE5F03BF8F6
:1000CE00EE8AF0A42CFCE5F038F8E433CF89F0A4E6
:1000DE002CFCE5F038CF3400CE89F0A42FFFE5F0EC
:1000EE003EFEE433C98DF0A42EFEE5F039CD8AF044
:1000FE00A42FFFE5F03EFEE43DFD33D0E0FB5007BC
:10010E000BBB000F020278EC2CFCEF33FFEE33FE3C
:06011E00ED33FD0202506A
:10012400020278EC5D046005E85904700302026E73
:10013400120239580460F6EC4860F2EC7004FDFEDB
:10014400FF22C860DB2481C85009C39860025006AE
:100154000202759850CAF582E9294B4A7005AB82B0
:1001640002026475F0007C1A7880C3EF9BEE9AED6E
:1001740099400DC3EF9BFFEE9AFEED99FDE842F026
:10018400DC23ACF0D0E0FFD0E0FED0E0FDAB822079
:10019400E7101BEB60BAEC2CFCEF33FFEE33FEED03
:1001A40033FD020250E803F830E705C0F075F000B3
:1001B400EF2FFFEE33FEED33FD40B830E7C280AAE7
:1001C40075F020800E75F010800575F0087D007EB6
:1001D400007F003392D530D503120283EC334010F4
:1001E400EF33FFEE33FEED33FDEC33FCD5F0ED22BF
:0E01F400E5F0247EA2D513CC92E7CDCEFF22FB
:10020200EDD2E7CD33EC3392D524814006E4FFFEF4
:10021200FDFC22FCE4CFCECDCC24E0501174FF8053
:10022200EDC3CC13CCCD13CDCE13CECF13CF0470F0
:07023200F030D5DE0202836B
:10023900E9D2E7C933E833F892D5EDD2E7CD33EC0B
:0702490033FC5002B2D52284
:10025000EC30E7100FBF000C0EBE00080DBD00040F
:100260000BEB6014A2D5EB13FCED92E7FD2274FFBB
:10027000FCFDFEFF22E480F8A2D574FF13FC7D8014
:03028000E480EF28
:0300000002070BE9
:0C070B00787FE4F6D8FD7581610207528A
:10080200C2D5E830E70FB2D5E4C39BFBE49AFAE421
:1008120099F9E498F8EC30E717B2D51208381203C8
:10082200CCE4C39BFBE49AFAE499F9E498F88003D8
:100832001203CC30D50DE4C39FFFE49EFEE49DFD80
:04084200E49CFC2214
:0E028300C3E49FFFE49EFEE49DFDE49CFC228C
:10029100EB9FF5F0EA9E42F0E99D42F0EC6480C8E4
:0602A10064809845F02284
:1002A700E709F60870FA8046E709F20870FA803E17
:1002B70088828C83E709F0A370FA807EE309F60849
:1002C70070FA8076E309F20870FA806E88828C8370
:1002D700E309F0A370FA806289828A83E0A3F608B3
:1002E70070FA805689828A83E0A3F20870FA804AFE
:1002F70080D280FA80C680D4806580F280318010F9
:1003070080A680EA809A80A880DA80E280CA80315D
:1003170089828A83ECFAE493A3C8C582C8CCC583D3
:10032700CCF0A3C8C582C8CCC583CC70E9800D8941
:10033700828A83E493A3F60870F9ECFAA9F0EDFB3F
:100347002289828A83ECFAE0A3C8C582C8CCC58318
:10035700CCF0A3C8C582C8CCC583CC70EA80DD8940
:10036700828A83E493A3F20870F980CE88F0ED24A3
:1003770002B4040050C4F582EB2402B4040050BA5E
:0903870023234582239002F77341
:1007170002045EE493A3F8E493A34003F68001F296
:1007270008DFF48029E493A3F85407240CC8C333E3
:10073700C4540F4420C8834004F456800146F6DFB2
:10074700E4800B0102040810204080900797E47EA4
:10075700019360BCA3FF543F30E509541FFEE493A7
:10076700A360010ECF54C025E060A840B8E493A36E
:10077700FAE493A3F8E493A3C8C582C8CAC583CA99
:10078700F0A3C8C582C8CAC583CADFE9DEE780BE51
:0108010000F6
:1003900075F008758200EF2FFFEE33FECD33CDCC24
:1003A00033CCC58233C5829BED9AEC99E5829840A7
:1003B0000CF582EE9BFEED9AFDEC99FC0FD5F0D684
:1003C000E4CEFBE4CDFAE4CCF9A88222B800C1B9AE
:1003D0000059BA002DEC8BF084CFCECDFCE5F0CBEC
:1003E000F97818EF2FFFEE33FEED33FDEC33FCEB25
:1003F00033FB10D703994004EB99FB0FD8E5E4F9E0
:10040000FA227818EF2FFFEE33FEED33FDEC33FCCC
:10041000C933C910D7059BE99A4007EC9BFCE99AC0
:10042000F90FD8E0E4C9FAE4CCFB2275F010EF2F05
:10043000FFEE33FEED33FDCC33CCC833C810D70705
:100440009BEC9AE899400AED9BFDEC9AFCE899F840
:0E0450000FD5F0DAE4CDFBE4CCFAE4C8F922D3
:00000001FF
