:020000040800F2
:10000000E0090020C1010008331300085B1100085B
:1000100031130008C10200084D160008000000005E
:10002000000000000000000000000000A315000810
:10003000C30200080000000035130008A5150008E1
:10004000DB010008DB010008DB010008DB01000820
:10005000DB010008DB010008DB010008DB01000810
:10006000DB010008DB010008DB010008DB01000800
:10007000DB010008DB010008DB010008DB010008F0
:10008000DB010008DB010008DB010008DB010008E0
:10009000DB010008DB010008DB010008DB010008D0
:1000A000DB010008DB010008DB010008DB010008C0
:1000B000DB010008DB010008DB010008DB010008B0
:1000C000DB010008DB010008DB010008DB010008A0
:1000D000DB010008DB010008DB010008DB01000890
:1000E000C5020008DB010008DB010008DB01000895
:1000F000DB010008DB010008DB010008DB01000870
:10010000DB010008DB010008DB010008DB0100085F
:10011000DB010008DB010008DB010008DB0100084F
:10012000DB010008DB010008DB010008DB0100083F
:10013000DB010008DB010008DB010008DB0100082F
:10014000DB010008DB010008DB010008DB0100081F
:10015000DB010008DB010008DB010008DB0100080F
:10016000DB010008DB010008DB010008DB010008FF
:10017000DB010008DB010008DB01000800000000D3
:10018000DB010008DB010008DB010008DB010008DF
:10019000DB010008DB010008DB010008DB010008CF
:1001A000DB010008DB010008DB010008DFF80CD0F0
:1001B00000F02AF800480047B1170008E0090020C5
:1001C0000648804706480047FEE7FEE7FEE7FEE7F1
:1001D000FEE7FEE7FEE7FEE7FEE7FEE7091600089A
:1001E000AD010008D2B201E000F8012B491EFBD29C
:1001F00070470022F6E710B513460A460446194632
:10020000FFF7F0FF204610BD064C074D06E0E06802
:1002100040F0010394E8070098471034AC42F6D34D
:10022000FFF7C8FFE45200080453000870B501EB63
:10023000020410F8015B15F0070301D110F8013B2F
:100240002A1106D110F8012B03E010F8016B01F818
:10025000016B5B1EF9D12B0705D40023521E0FD46E
:1002600001F8013BFAE710F8013B02F10202A1EBB1
:10027000030303E013F8015B01F8015B521EF9D59B
:10028000A142D6D3002070BD70B54FF4F0750024A4
:1002900029460A48FFF7ADFFA1B2002001F041F95D
:1002A000002211462C2001F06DF92946034800F088
:1002B00065FF641CF02CEFD370BD0000A00100208E
:1002C000FEE7704710B54FF4806000F071F84FF40E
:1002D000006000F06DF8BDE810404FF4804000F081
:1002E00067B8704770B5044600F068F90546601CB1
:1002F00002D004484068044400F060F9401BA0426A
:10030000FAD370BD300100201CB50124B0F5806F18
:100310001DD0B0F5006F0ED0B0F5804F28D1402130
:10032000144800F03FF9FFF7AFFF18234DF6DD50FA
:1003300011A2002117E00821134800F033F9FFF75C
:10034000A3FF18234EF6EE6010A228210BE04FF415
:100350000041124800F026F9FFF796FF18234FF6E8
:10036000FF700FA25021CDE90004002001F0F0F948
:100370001CBD0000000400484C4544312043686126
:100380006E67652100000000001000484C454432B3
:10039000204368616E67652100000000000C004882
:1003A0004C454433204368616E67652100000000BE
:1003B000044910B50A68024202D00860FFF7A4FFA2
:1003C00010BD0000140401402DE9FC4FDFF8ACA182
:1003D000002301250AF1040B03244FF00F0C0BF14D
:1003E000040EC4E005FA03F632406ED04F68012FC8
:1003F00005D0022F03D0112F01D0122F17D1D0F822
:1004000008904FEA430804FA08F729EA0709CDF8EB
:100410000080CF6807FA08F747EA0907876047684E
:10042000B7430E79C6F300169E403E434660C66849
:100430004FEA430804FA08F7BE4301978F6807FAAA
:1004400008F73743C7604E68022E01D0122E10D134
:10045000DE0800EB86060096366A5F074FEAD7692A
:100460000CFA09F7BE430F6907FA09F73743009EF4
:1004700037620768019EB7430E7906F0030606FA55
:1004800008F63E4306604E68F6006FD53C4E376E68
:1004900047F001073766366E23F0030706F00106C2
:1004A0000096384E3E44B146B7689E074FEA16782C
:1004B0000CFA08F6B743B0F1904F04D0324EB04278
:1004C00004D1012621E000261FE04FE02F4EB0426C
:1004D00001D1022619E02E4EB04201D1032614E0CC
:1004E0002C4EB04201D104260FE02B4EB04201D178
:1004F00005260AE0294EB04201D1062605E0284E25
:10050000B04201D1072600E0082606FA08F63E436D
:10051000C9F80860DAF800605746D1F804809643BD
:100520005FEAC83800D516433E60DBF800605F46DE
:10053000D1F8048096435FEA883800D516433E60C0
:10054000DEF800607746D1F8048096435FEAC82859
:1005500000D516433E60094F0C373E68D1F8048041
:1005600096435FEA882800D516433E605B1C0A6804
:1005700032FA03F67FF436AFBDE8FC8F0004014089
:10058000001002400000014000040048000800483C
:10059000000C0048001000480014004800180048F3
:1005A000001C004842690A4201D0816270478161A3
:1005B00070470AB181617047816270470148806865
:1005C00070470000300100200248816842681144F1
:1005D000816070473001002010B50024032000F036
:1005E00071F8002000F008F808B1012401E000F0E3
:1005F00025F8204610BD000070B50E4E05460024BB
:10060000706898B14FF47A71B1FBF0F00A4909684B
:10061000B1FBF0F000F08DFD40B9102D06D20022A4
:100620002946501E00F02EF8356000E001242046D7
:1006300070BD0000300100202C010020094808B5E1
:10064000016E41F001010166016E01F001010091AE
:10065000816D41F080518165806D00F08050009087
:1006600008BD00000010024000280ADB00F01F0255
:100670000121914040094FF0E02202EB8000C0F8D8
:1006800000117047F0B40E4B1B680C46C3F30223F5
:10069000C3F10705042D00D90425191D072901D22E
:1006A000002300E0DB1E012606FA05F1491E214069
:1006B00099409E40761E16403143F0BC00F0C8BF02
:1006C0000CED00E0064900F0070208684FF6FF0352
:1006D000184040EA0220034A1043086070470000B7
:1006E0000CED00E00000FA051749B0F5007F08683E
:1006F000C0F3412009D0022805D0086820F4C0606A
:1007000040F480600860002070470128FBD0086832
:1007100020F4C06040F4007008600C483222006889
:1007200050430B4AB0FBF2F000F1010002E000BFC1
:10073000A0F101004A69520501D50028F8D14869A5
:100740004005E0D503207047007000402C010020D8
:1007500040420F000248006800F4C060704700008B
:10076000007000402DE9F0470F46050058D0404E7C
:10077000306800F00700B84209D2306820F0070066
:1007800038433060306800F00700B84248D128781C
:10079000384CC0072CD06868032811D0022812D02A
:1007A000216898B1490500293ADAA16821F00301CE
:1007B0000143A160FFF702FF804641F2883910E053
:1007C00021688901EFE721688903ECE78907EAE7F7
:1007D000FFF7F4FEA0EB0801494502D90320BDE86C
:1007E000F087A068696800F00C00B0EB810FEFD1D2
:1007F0002878800705D5A068A96820F0F000084394
:10080000A060306800F00700B8420BD9306820F0D3
:10081000070038433060306800F00700B84201D06C
:100820000120DCE72878400705D5A068E96820F4B6
:10083000E0600843A0602878000706D5A068296911
:1008400020F4605040EAC100A06000F01BF8A168ED
:10085000094AC1F30311515C01F01F01C840074967
:10086000086007480068BDE8F047FFF7C5BE000014
:100870000020024000100240A45200082C01002079
:100880003001002070B52549002318468A68CC68DD
:1008900012F00C0204F00306214C4FEA640509D063
:1008A0000C2A05D0042A32D0082A00D1284670BD6F
:1008B000012E10D10B681B0704D4D1F89430C3F378
:1008C000032302E00B68C3F30313164E56F82330DC
:1008D000DAB10C2AEBD1C86800F00300022818D066
:1008E000032818D01846CA68CB68C2F30212521CFB
:1008F000C3F306234343B3FBF2F2C868C0F341607D
:10090000401C4000B2FBF0F070BD184670BD2046A0
:1009100070BD2046E7E72846E5E7000000100240EA
:100920000024F400B45200082DE9F84304006FD00D
:10093000FA4DA86800F00C06E86800F0030720787C
:10094000C00664D576B10C2E01D1012F0AD0A06962
:10095000002828687AD040F001002860FFF72EFEBA
:1009600080465DE02868800702D5A0690028DED0B7
:10097000216A2868000703D5286800F0F00004E029
:10098000D5F89400F02202EA1010814216D90846E8
:1009900000F0D2FC00283BD1286840F00800286015
:1009A0002868216A20F0F000084328606868E1693F
:1009B00020F47F4040EA0120686016E0286840F09B
:1009C000080028602868216A20F0F00008432860A9
:1009D0006868E16920F47F4040EA0120686026B938
:1009E000206A00F0A9FC0028D5D1FFF74BFFA968C9
:1009F000CB4AC1F30311515C01F01F01C840C94942
:100A00000860C9480068FFF7F7FD00287ED12EE096
:100A1000CAE000BFFFF7D2FDA0EB0800022876D89D
:100A200028688007F6D5286840F008002860286804
:100A3000216A20F0F000084328606868E16920F42A
:100A40007F4040EA0120686011E0FFE720F00100EC
:100A50002860FFF7B3FD804606E000BFFFF7AEFD5C
:100A6000A0EB08000228DAD828688007F6D420789E
:100A7000C00740D0082E18D00C2E01D1032F14D05F
:100A80006068B0F5803F17D0B0F5A02F286817D068
:100A900020F480302860286820F480202860606876
:100AA000E0B1FFF78BFD804614E02868800322D573
:100AB0006068002878D01EE0286840F48030EDE7B8
:100AC00040F480202860F7E7FFF778FDA0EB0800EE
:100AD0006428A4D828688003F6D50CE0FFF76EFDE3
:100AE000804605E0FFF76AFDA0EB0800642896D871
:100AF00028688003F6D4207880073BD5042E11D0D7
:100B00000C2E01D1022F0DD0E06801E0BCE12FE1F5
:100B1000002828681ED040F480702860FFF74EFD42
:100B200007460CE0286840050CD5E0680028C1D0D5
:100B300008E000BFFFF742FDC01B022893D82868D9
:100B40004005F7D56868217C20F0FE4040EA01604E
:100B500068600FE020F480702860FFF72FFD0746E3
:100B600005E000BFFFF72AFDC01B0228B1D82868A6
:100B70004005F7D42078000729D560690028D5F80A
:100B8000940012D040F00100C5F89400FFF716FD64
:100B9000074604E0FFF712FDC01B022899D8D5F8DC
:100BA00094008007F6D512E02EE120F00100C5F890
:100BB0009400FFF703FD074605E000BFFFF7FEFCCA
:100BC000C01B022885D8D5F894008007F6D4207879
:100BD000400769D5A86D0027C00008D4A86D40F073
:100BE0008050A865A86D012700F0805000904F4804
:100BF0000168C90512D40168814641F48071016021
:100C0000FFF7DCFC804605E0FFF7D8FCA0EB08000E
:100C1000022893D8D9F80000C005F5D5A0680128AE
:100C200014D0052855F8900F17D020F00100286047
:100C3000286820F0040000BF45F89009A06841F240
:100C40008839E0B1FFF7BAFC804613E0D5F8900090
:100C500040F00100C5F89000F0E740F00400286083
:100C6000286840F00100E7E7FFF7A8FCA0EB0801C7
:100C700049457DD8D5F890008007F5D50EE0FFF7FF
:100C80009DFC804606E000BFFFF798FCA0EB080142
:100C900049456DD8D5F890008007F5D4012F03D1D0
:100CA000A86D20F08050A8652078800627D5606A5E
:100CB0000028D5F8980011D040F00100C5F8980040
:100CC000FFF77CFC074604E0FFF778FCC01B022816
:100CD0004ED8D5F898008007F6D510E020F0010036
:100CE000C5F89800FFF76AFC074604E0FFF766FCCA
:100CF000C01B02283CD8D5F898008007F6D4A06A1B
:100D0000B8B3022814D00C2E7ED0286820F0807052
:100D10002860286810F0205F77D0A6E0001002401D
:100D2000A45200082C010020300100200070004077
:100D3000E868E26A00F00301914229D1216B00F0DA
:100D4000700209011039914222D1626B00F4FE4118
:100D5000B1EB022F1CD194F8382000F07841B1EBB0
:100D6000C26F15D1A18F49084905A1F5001101E015
:100D700089E075E000F4C002914209D194F8401076
:100D800000F0C06049084906A1F10071814250D0CD
:100D90000C2E39D0286840017DD42868C0007AD450
:100DA000286820F080702860FFF708FC064604E001
:100DB000FFF704FC801B022865D828688001F7D45F
:100DC0002C346FF00F02D4E9000102EB011108434B
:100DD000218A5204490802EB4151A26841EA0221EA
:100DE0000843217D4FF07E42490802EB41610843F0
:100DF000217B40EAC160E968284A11400843E86065
:100E0000286840F0807001E045E02AE02860E8684A
:100E100040F08070E860FFF7D1FB044605E000BFBA
:100E2000FFF7CCFB001B02282DD828688001F7D5DE
:100E30002FE0286880012CD4286840F0807028605A
:100E4000E86840F08070E860FFF7B8FB044604E013
:100E5000FFF7B4FB001B022815D828688001F7D5DE
:100E600017E0E86820F00300E860E8680C490840F3
:100E7000E860FFF7A3FB044608E000BFFFF79EFB16
:100E8000001B022802D90320BDE8F88328688001EE
:100E9000F4D40020F8E70120F6E700008C809D01E3
:100EA000FFFFEEFE2DE9F041040005D00025A5620C
:100EB00094F85D0018B107E00120BDE8F08184F8E6
:100EC0005C50204600F044F8022384F85D3020682E
:100ED000016821F040010160E0684FF4E066B04233
:100EE00001D9002101E04FF48051B0F5706F02D0BC
:100EF000B04200D0A562276B012227B9B04201D9C8
:100F0000236300E02263D4E901031843D4E90436E3
:100F100033431843238B03F400731843E3691843E6
:100F2000236A1843A36A184323681860636B606AD6
:100F3000A66918430427E36807EA164633431843B3
:100F4000084321684860256684F85D200020B4E7E6
:100F500010B586B0044614216846FFF74AF91349D4
:100F60002068884220D11248016E41F48051016608
:100F7000016E01F480510591C16C41F00101C16421
:100F8000C06C694600F0010005904FF40B600090C2
:100F9000022001900020029003200390052004907D
:100FA0004FF09040FFF710FA06B010BD003001403E
:100FB000001002402DE9F84F044690F85C0000272D
:100FC0001D461646894601280DD04FF0010B84F8C6
:100FD0005CB0FFF7F3FA804694F85D00BA4601284A
:100FE00004D002279FE00220BDE8F88FB9F1000F7E
:100FF0006FD0002E6DD0032084F85D00C4F860A08F
:10100000C4F83890A687E687C4F840A0A4F844A0A6
:10101000A4F846A0C4F850A0C4F84CA0A068B0F54D
:10102000004F04D12068016841F4804101602068CC
:101030000168490603D4016841F040010160E0689D
:10104000B0F5E06F606823D908B1012E1CD1A06B08
:1010500021680088C86006E020688168890709D592
:10106000A16B0988C160A06B801CA063E08F401E4B
:10107000E08709E0FFF7A2FAA0EB0800A84202D33C
:10108000681C01D046E0ADB3E08F0028E4D136E023
:1010900008B1012E30D1E08F0128A06B03D921685F
:1010A0000088C8600FE021680078087314E0E087CA
:1010B00022E020688168890714D5E18F0129A16B9E
:1010C00008D90988C160A06B801CA063E08F801ED6
:1010D000EDE727E009780173A06B401CA063E08F67
:1010E000401EE4E7FFF76AFAA0EB0800A84202D32B
:1010F000681C01D00EE06DB1E08F0028D9D14246C6
:101100002946204600F056F908B120202066A06844
:1011100010B105E0032706E02068C16880680090F0
:10112000206E00B1012784F85DB084F85CA03846D9
:101130005AE710B5401EB0F1807F01D3012010BDE9
:101140004FF0E02460610F21601700F081FA002069
:10115000A06107202061002010BDFEE701B501223B
:1011600040214FF09040FFF724FA0A2301226946FC
:101170000148FFF71FFF08BD3C01002070B50D4678
:101180000446012240214FF09040FFF712FAAAB224
:101190002146BDE870400A230148FFF70BBF00005D
:1011A0003C01002001B5002240214FF09040FFF7A4
:1011B00000FA0A23012269460148FFF7FBFE08BD39
:1011C0003C0100202DE9F04786B014216846FFF766
:1011D00010F84248C16C41F01001C164C16C01F0CB
:1011E00010010591C16C41F08001C164C16C01F036
:1011F00080010591C16C41F00101C164C16C01F035
:1012000001010591C16C41F00201C164C16C01F0A2
:1012100002010591C16C41F00801C164C06C304FFE
:1012200000F008000590002288213846FFF7C1F938
:101230004FF09048012240214046FFF7BAF9DFF80D
:10124000A490012204214846FFF7B3F9DFF898A0E3
:101250004FF40046002231465046FFF7AAF900221B
:1012600040214846FFF7A5F9882000900125002479
:10127000CDE90154694638460394FFF7A5F84020AC
:101280000090CDE90154694640460394FFF79CF86D
:1012900044200090CDE90154694648460394FFF785
:1012A00093F84FF4984000901048CDE90104694646
:1012B0003846FFF789F80096CDE901546946504653
:1012C0000394FFF781F8002211462820FFF7DAF98E
:1012D0002820FFF7C9F906B0BDE8F08700100240EA
:1012E0000010004800040048000C004800002110D5
:1012F0000E480D494FF4E06201604FF48271416085
:101300000021C0E902124FF400720161C0E9051228
:10131000C161016207224162C0E90A12016308212A
:101320004163FFF7BFBD0000003001403C010020D9
:10133000FEE7704770470000F8B51C4D06460024D4
:10134000A86DC00002D5FFF705FA0DE0A86D40F0CA
:101350008050A865A86D00F080500090FFF7FAF962
:10136000A96D21F08051A965B0F5007F04D0802ED1
:1013700007D94FF003040AE0802E08D9A02E01D827
:1013800004E001D1022402E0702E00D101240848BB
:10139000016821F0070121430160006800F00700A7
:1013A000A04201D00120F8BD0020F8BD001002408D
:1013B00000200240F8B515460E460B460092044642
:1013C00000224FF4C05100F019F888B933460022CA
:1013D00080212046009500F05BF848B93346002292
:1013E0004FF4C0612046009500F008F8002804D0B2
:1013F000206E40F0200020660320F8BD2DE9F04764
:101400001D4617460E4604464FF4C068DDF820908E
:101410000CE0464501D107B9007B681C06D0FFF7F8
:10142000CDF8A0EB0900A84208D23DB12068816840
:101430003140B942EDD10020BDE8F0872068416815
:1014400021F0E00141606068B0F5827F0BD1A068B7
:10145000B0F5004F02D0B0F5806F04D1206801686C
:1014600021F040010160A06AB0F5005F09D1206859
:10147000016821F4005101602068016841F40051C5
:10148000016001205C346070002020700320D3E7ED
:101490002DE9F0411D4617460E460446DDF818803A
:1014A00008E0681C06D0FFF789F8A0EB0800A84206
:1014B0000BD255B12068806836EA00002FD000209A
:1014C000B842EED10020BDE8F0812068416821F0EB
:1014D000E00141606068B0F5827F0BD1A068B0F593
:1014E000004F02D0B0F5806F04D12068016821F070
:1014F00040010160A06AB0F5005F09D12068016871
:1015000021F4005101602068016841F4005101603C
:1015100001205C346070002020700320D3E701209C
:10152000CEE738B500258DF800508DF801008DF814
:101530000250EF300C468DF80300042269462A2041
:1015400000F020F88DF800508DF801408DF8025021
:10155000EF348DF80340042269462B2000F012F886
:1015600038BD10B51446FFF7DCFF002211462C20D1
:1015700000F008F8200AFFF7F1FDE0B2BDE81040E6
:10158000FFF7ECBD70B515460E46FFF70BFE0024C5
:1015900004E0305DFFF7E2FD641CE4B2AC42F8D336
:1015A00070BD7047FFF710B810B596B0442168467B
:1015B000FEF71FFE142111A8FEF71BFE10200121CB
:1015C0000090002406916020CDE907400220CDE97B
:1015D0000A010C912821CDE90D100F90109068465A
:1015E000FFF7A2F90F2011900320CDE91204149403
:1015F000042111A81594FFF7B5F84FF40070FFF718
:1016000073F816B010BD00000D48016841F4700178
:1016100001600C48016841F0010101600021816016
:101620000268094B1A4002608214C260026822F408
:101630008022026081610249C003803908607047DE
:1016400088ED00E000100240FFFFF6EAFEE7000030
:101650000907090E002801DB034A02E0034A00F0F3
:101660000F0081547047000000E400E014ED00E03A
:1016700002E008C8121F08C1002AFAD1704770475B
:10168000002001E001C1121F002AFBD170470000B9
:101690002DE9F84F203A8B4600901E464FF0000887
:1016A0005C46D0B20C2B28D0102E2DD0182E30D066
:1016B000242E42D1C0EB0010214900EB400001EB89
:1016C00040054FF05A00824615F8017B4FF00009A3
:1016D000380604D521460A9A0098FFF742FF78069B
:1016E000641C070EA4B2A4EB0B00B04218D1009802
:1016F0005C46401C80B2009019E0124900EB4000AB
:1017000001EB80050C20DEE70F4901EB00151020EE
:10171000D9E70E4900EBC00001EB80052420D2E799
:1017200009F1010000F0FF09B9F1080FD0D308F169
:10173000010000F0FF08D045C6D3BDE8F88F0000D7
:101740003C3100087C190008F01D0008E023000867
:101750002DE9F84F8146044614480D469A46018803
:10176000808816461FFA81F887B2DDF82CB015E0A4
:10177000BBF1000F07D0444503D905EB0A004C46E6
:1017800085B2BD420FD80A9800905346294620469C
:10179000FFF77EFF04EB5A0084B2761C3278A2F188
:1017A00020005E28E4D9BDE8F88F0000000000208A
:1017B000FEF712FFFFF7F8FEFFF704FDFFF798FDB5
:1017C000012240210848FEF7F4FE012208210748C3
:1017D000FEF7EFFE0122D1030548FEF7EAFE00F016
:1017E00045F800F036F8FEE7000400480010004815
:1017F000000C0048F0B5A1B00C46054680216846B3
:10180000FEF7F7FC0021684620F81150491C4029DA
:10181000FADB012240214FF09040FEF7CAFE4FF65E
:10182000FF76402C02D806EA44010DE0A50904F039
:101830003F07002404E08021684600F08BF8641C18
:10184000AC42F8DB06EA4701684600F083F821B0B5
:10185000F0BD10B52C21012000F05CF8BDE810406F
:101860004FF461410020FFF7C5BF0000134910B5D8
:1018700011480860012280211148FEF79AFE114CA0
:10188000012204212046FEF794FE3220FEF72AFDB5
:10189000002204212046FEF78CFE3220FEF722FDB6
:1018A000012204212046FEF784FE9620FEF71AFD51
:1018B000BDE8104000F008B83C01002008000020FE
:1018C000001000480004004870B50024104D264662
:1018D00015F82400052817D2DFE800F016190308D0
:1018E0000F0005EB84008178012003E005EB840004
:1018F0008178002000F00EF804E005EB84004088B9
:10190000FEF7F0FC641CE3E7641C002EE0D070BD21
:101910000C00002038B50E4C00220092226832B133
:101920008DF800104FF0904328B1002204E0FEF73C
:10193000D8FC012038BD012240211846FEF739FEAF
:101940004FF0FF33012269462068FFF733FB38BDB3
:101950000800002010B504460748006838B10A4660
:101960002146BDE810404FF0FF33FFF723BBFEF7E1
:10197000B8FC012010BD000008000020000000009D
:101980000000000000000000000000003F400000D8
:101990000000000000003000400030004000000067
:1019A00009000BC03D000BC03D00090018C02440D9
:1019B0007FE0224031800000180024C01B000D8011
:1019C0003240018003801C4027401C8007400040BB
:1019D0001000600000000000000000000000000097
:1019E00000001F80204040200000402020401F8039
:1019F00000000000090006001F800600090000002A
:101A0000040004003F800400040000000010006097
:101A100000000000000000000400040004000400B6
:101A20000400000000000040000000000000000072
:101A3000002001C006003800400000001F80204048
:101A4000204020401F800000000010403FC00040A8
:101A50000000000018C0214022402440184000002F
:101A600010802040244024401B80000002000D0014
:101A700011003FC0014000003C802440244024402D
:101A8000238000001F802440244034400380000055
:101A90003000200027C03800200000001B802440B8
:101AA000244024401B8000001C0022C02240224011
:101AB0001F8000000000000008400000000000003F
:101AC00000000000046000000000000000000400AE
:101AD0000A001100208040400900090009000900A7
:101AE0000900000000004040208011000A000400AE
:101AF0001800200023402400180000001F80204010
:101B0000274029401F400000004007C039000F0057
:101B100001C0004020403FC0244024401B80000002
:101B20001F802040204020403080000020403FC0E7
:101B3000204020401F80000020403FC024402E4015
:101B400030C0000020403FC024402E003000000084
:101B50000F001080204022403380020020403FC010
:101B6000040004003FC02040204020403FC02040EF
:101B7000204000000060202020203FC020002000E6
:101B800020403FC024400B0030C0204020403FC0D8
:101B900020400040004000C03FC03C0003C03C006B
:101BA0003FC0000020403FC00C4023003FC0200049
:101BB0001F802040204020401F80000020403FC068
:101BC00024402400180000001F802140214020E014
:101BD0001FA0000020403FC02440260019C0004044
:101BE00018C02440244022403180000030002040B2
:101BF0003FC020403000000020003F8000400040F7
:101C00003F80200020003E0001C007003800200077
:101C1000380007C03C0007C038000000204039C031
:101C2000060039C0204000002000384007C038407E
:101C300020000000304021C02640384020C0000075
:101C4000000000007FE04020402000000000700005
:101C50000C000380004000000000402040207FE096
:101C600000000000000020004000200000000000F4
:101C70000010001000100010001000100000000004
:101C80004000000000000000000002800540054008
:101C900003C0004020003FC0044004400380000017
:101CA0000000038004400440064000000000038060
:101CB000044024403FC00040000003800540054030
:101CC00003400000000004401FC0244024402000C6
:101CD000000002E0055005500650042020403FC09F
:101CE0000440040003C000400000044027C000403E
:101CF0000000000000100010041027E000000000A9
:101D000020403FC00140070004C004402040204064
:101D10003FC000400040000007C0040007C00400AE
:101D200003C00000044007C00440040003C000409A
:101D3000000003800440044003800000041007F00A
:101D4000045004400380000000000380044004505D
:101D500007F00010044007C0024004000400000027
:101D6000000006400540054004C0000000000400DB
:101D70001F80044000400000040007800040044031
:101D800007C000400400070004C0018006000400F2
:101D9000060001C0070001C006000000044006C0A4
:101DA000010006C0044000000410071004E0018098
:101DB000060004000000044005C006400440000086
:101DC0000000000004007BE0402000000000000054
:101DD0000000FFF000000000000040207BE0040055
:101DE0000000000040008000400020002000400073
:101DF00000000000000000000000000000000000E3
:101E00000000000000001FCC000C000000000000DB
:101E10000000080030006000080030006000000092
:101E2000022003FC1E20022003FC1E2002200000D2
:101E300000000E1811043FFF10840C780000000011
:101E40000F0010840F3800C0077818840078000055
:101E500000780F8410C411240E9800E40084000858
:101E60000800680070000000000000000000000092
:101E700000000000000007E01818200440020000E5
:101E8000000040022004181807E0000000000000D5
:101E90000240024001800FF0018002400240000039
:101EA0000080008000800FF800800080008000002B
:101EB0000001000D000E0000000000000000000006
:101EC0000000008000800080008000800080008092
:101ED0000000000C000C00000000000000000000EA
:101EE00000000006001800600180060018002000B5
:101EF000000007F0080810041004080807F00000AC
:101F00000000080408041FFC000400040000000096
:101F100000000E0C10141024104411840E0C00004C
:101F200000000C1810041104110412880C70000039
:101F3000000000E00320042408241FFC002400000B
:101F400000001F9810841104110410881070000004
:101F5000000007F0088811041104188800700000C0
:101F600000001C00100010FC13001C0010000000FA
:101F700000000E3811441084108411440E38000003
:101F800000000700088C10441044088807F0000087
:101F9000000000000000030C030C00000000000023
:101FA0000000000000010106000000000000000029
:101FB0000000008001400220041008081004000006
:101FC0000220022002200220022002200220000023
:101FD00000001004080804100220014000800000E6
:101FE00000000E001200100C106C10800F0000009A
:101FF00003E00C1813E4142417C4082807D00000C9
:102000000004003C03C41C40074000E4001C000422
:1020100010041FFC1104110411040E88007000004C
:1020200003E00C1810041004100410081C10000029
:1020300010041FFC100410041004080807F000002E
:1020400010041FFC1104110417C410040818000028
:1020500010041FFC1104110017C01000080000003C
:1020600003E00C181004100410441C780040000019
:1020700010041FFC10840080008010841FFC1004DA
:102080000000100410041FFC1004100400000000E5
:1020900000030001100110011FFE100010000000DD
:1020A00010041FFC110403801464181C10040000A9
:1020B00010041FFC1004000400040004000C0000C5
:1020C00010041FFC1F0000FC1F001FFC1004000078
:1020D00010041FFC0C04030000E010181FFC10008B
:1020E00007F00808100410041004080807F00000A6
:1020F00010041FFC10841080108010800F0000005E
:1021000007F0081810241024101C080A07F2000019
:1021100010041FFC1104110011C011300E0C00043A
:1021200000000E1C11041084108410441C380000A0
:102130001800100010041FFC10041000180000000C
:1021400010001FF810040004000410041FF8100011
:1021500010001E0011E0001C007013801C00100015
:102160001FC0103C00E01F0000E0103C1FC000003A
:102170001004180C163401C001C01634180C1004D9
:1021800010001C00130400FC13041C0010000000CD
:102190000804101C1064108413041C0410180000A0
:1021A0000000000000007FFE4002400240020000EC
:1021B000000030000C0003800060001C00030000E1
:1021C00000004002400240027FFE000000000000CC
:1021D00000000000200040004000400020000000FF
:1021E00000010001000100010001000100010001E7
:1021F000000040004000200000000000000000003F
:1022000000000098012401440144014400FC000442
:1022100010001FFC00880104010400880070000009
:10222000000000700088010401040104008800001F
:102230000000007000880104010411081FFC000464
:10224000000000F8014401440144014400C80000BA
:102250000000010401040FFC110411041100180016
:10226000000000D601290129012901C90106000049
:1022700010041FFC008401000100010400FC0004A4
:1022800000000104190419FC00040004000000000F
:102290000000000300010101190119FE0000000007
:1022A00010041FFC0024004001B4010C01040000D4
:1022B0000000100410041FFC0004000400000000D3
:1022C000010401FC0104010001FC0104010000FC07
:1022D000010401FC008401000100010400FC000471
:1022E000000000F8010401040104010400F80000EA
:1022F000010101FF00850104010400880070000055
:1023000000000070008801040104010501FF0001C4
:102310000104010401FC00840104010001800000AB
:10232000000000CC012401240124012401980000B4
:1023300000000100010007F8010401040000000092
:10234000010001F8000400040004010801FC00047D
:10235000010001800170000C00100160018001008B
:1023600001F0010C003001C00030010C01F001004F
:1023700000000104018C00740170018C0104000054
:10238000010101810171000E00180160018001004E
:1023900000000184010C013401440184010C00009F
:1023A000000000000000000001003EFC400240026E
:1023B0000000000000000000FFFF0000000000001F
:1023C0000000400240023EFC01000000000000004E
:1023D00000006000800080004000400020002000DD
:1023E00000000000000000000000000000000000ED
:1023F00000000000000000000000000000000000DD
:1024000000000000000000000000000000000000CC
:102410000000000F80380FFE380F803800000000E9
:1024200000000000000000000000000000000100AB
:10243000000600000C00003800003100000600001B
:102440000C00003800003000000000000000000018
:1024500061800067F807F980006180006180006199
:10246000800061800067F807F9800061800000004B
:1024700000000000000001C0E003E0F006300804A6
:1024800018081FFFFE040E080787F00381E0000014
:102490000000000001F000060C00040408060C70A7
:1024A00001F9C0000E00003BE000EC18070808042A
:1024B0000C180003E00000000001E00007F003F842
:1024C00018041C0804170807E1D003C0E00023B07B
:1024D000003C08002008000010000000000000017F
:1024E00000003100003200001C000000000000006D
:1024F00000000000000000000000000000000000DC
:1025000000000000000000000000000000000000CB
:102510007F0001FFC00780F00C00181000042000AD
:10252000020000000000002000021000040C00184F
:102530000780F001FFC0007F0000000000000000E5
:1025400000000000000000000000000042000066E3
:1025500000006600003C0000180003FFC0001800E7
:10256000003C000066000066000042000000000021
:10257000080000080000080000080000080001FF33
:10258000C000080000080000080000080000080063
:1025900000000000000100003100003200001C00BB
:1025A000000000000000000000000000000000002B
:1025B0000000000000000000080000080000080003
:1025C00000080000080000080000080000080000E3
:1025D00008000008000000000000000000000000EB
:1025E0003800003800003800000000000000000043
:1025F00000000000000000000000000000000000DB
:10260000000600001C000070000180000E00003871
:102610000000C0000700001C0000300000000000A7
:10262000000000007F8001FFE003807006001804B6
:10263000000804000806001803807001FFE0007F16
:1026400080000000000000000000010008010008F8
:1026500001000803FFF807FFF80000080000080069
:10266000000800000000000000000001C03802C0A7
:1026700058040098040118040218040418061C18D1
:1026800003F81801E0F8000000000000000000015D
:10269000C0E003C0F0040008040808040808061895
:1026A0000803F41801E7F00001E00000000000005A
:1026B000000000000300000D000011000061000098
:1026C000810803010807FFF80FFFF8000108000167
:1026D000080000000000000000E007FCD006080829
:1026E000061008061008061008061838060FF0062F
:1026F00007C0000000000000000000003F8001FF54
:10270000E0038430020818041008041008041008BC
:10271000071810030FF00007C000000000000000C1
:10272000000003C0000700000600000600F80607CE
:10273000F806180006E00007000006000000000090
:1027400000000001E1E003F7F0063410041808046B
:102750001808040C08040C0806161803F3F001C14D
:10276000E000000000000000F80003FC3003063821
:102770000402080402080402080404100308F0011B
:10278000FFC0007F0000000000000000000000000B
:102790000000000000000000703800703800703841
:1027A0000000000000000000000000000000000029
:1027B000000000000000000000000000301A00309F
:1027C0001C000000000000000000000000000000ED
:1027D00000000000000000080000140000220000BB
:1027E0004100008080010040020020040010080029
:1027F000080000000000000021000021000021006E
:102800000021000021000021000021000021000023
:10281000210000210000000000000000000008006E
:1028200008040010020020010040008080004100E8
:102830000022000014000008000000000000000357
:10284000C00004C000040000080038080F38080861
:10285000380810000C300007E00003C00000000042
:10286000000000003F8000FFE0038070020F1006B0
:10287000708804C088048308047F8802C090030124
:102880002000FE400000080000180001F8003E088B
:1028900001C20007020007E20000FE00001FC8009E
:1028A00001F800003800000804000807FFF807FFDF
:1028B000F8040808040808040808040808061808AA
:1028C00003F41801E7F00001E00000000000000040
:1028D0003F8001FFE003807002001804000804003C
:1028E000080400080400100600200780C000000053
:1028F00004000807FFF807FFF804000804000804B4
:10290000000804001802001003807001FFE0007F3F
:102910008000000004000807FFF807FFF80408081B
:10292000040808040808040808043E08040008060F
:10293000001801006000000004000807FFF807FF0E
:10294000F8040808040800040800040800043E0015
:1029500006000006000001800000000000000000EA
:102960003F8001FFE00380700600180400080402A5
:10297000080402080203F00783F0000200000200CE
:1029800004000807FFF807FFF80408080008000023
:10299000080000080000080004080807FFF807FF07
:1029A000F80400080000000000000400080400080B
:1029B00004000807FFF807FFF804000804000804F3
:1029C00000080000000000000000000000060000F9
:1029D0000700000104000104000104000307FFFEDA
:1029E00007FFFC04000004000004000004000807C6
:1029F000FFF807FFF8040C08001800003E0004C7A9
:102A0000800503C80600F804003804001800000818
:102A100004000807FFF807FFF8040008000008009A
:102A2000000800000800000800000800001800006E
:102A30006000000004000807FFF807800807FC009A
:102A4000007FC00003F80007C00078000780080777
:102A5000FFF807FFF804000804000807FFF8070064
:102A60000803C00000E000003800001E000007005E
:102A70000001C00400F007FFF8040000000000009F
:102A80007F8001FFE0038070060018040008040046
:102A90000806001803003001FFE0007F80000000FE
:102AA00004000807FFF807FFF80404080404000402
:102AB0000400040400040400060C0003F80001F004
:102AC00000000000000000007F8001FFE003807034
:102AD0000600880400880400C806003C03003E018C
:102AE000FFE6007F8400000004000807FFF807FFEE
:102AF000F8040808040800040C00040F00040BC0CC
:102B00000610F003F03801E00800000800000001A2
:102B1000E0F803F030063010041808041808040C1C
:102B200008040C080206180207F00781E000000004
:102B300001800006000004000004000004000807F3
:102B4000FFF807FFF8040008040000040000060076
:102B50000001800004000007FFE007FFF0040018F8
:102B60000000080000080000080000080000080439
:102B7000001007FFE004000004000006000007E06A
:102B80000007FE00041FE00001F80000380001E02B
:102B9000043E0007C0000600000400000400000717
:102BA000E00007FFC0041FF80007C007F80007FF98
:102BB00080043FF80007C004F8000700000400008C
:102BC00000000004000806001807C07805F1C800DE
:102BD0003E00001F800463E80780F8060018040028
:102BE0000800000004000006000007800007E0085D
:102BF000047C08001FF80007F800180804E0080724
:102C000000000600000400000000000100080600AB
:102C1000380400F80403E8040F08047C0805F008F1
:102C200007C0080700180400600000000000000052
:102C300000000000000000000000003FFFFE200038
:102C400002200002200002200002200002000000FA
:102C500000000000000008000007000000C00000A5
:102C600038000006000001C000003000000E000027
:102C7000010000000000000000002000022000020F
:102C80002000022000022000023FFFFE00000000A2
:102C90000000000000000000000000000000000034
:102CA000000800001000003000002000003000008C
:102CB00010000008000000000000000000000100FB
:102CC00000010000010000010000010000010000FF
:102CD00001000001000001000001000001000001EE
:102CE0000000000000000000002000002000001094
:102CF00000001000000000000000000000000000C4
:102D0000000000000000000000F00019F8001B188F
:102D1000002208002608002408002410003FF800C4
:102D20001FF800000800001800000004000007FF62
:102D3000F80FFFF000181800100800200800200805
:102D4000003018001FF0000FC0000000000000005D
:102D500007C0001FF00018300020080020080020E5
:102D600008003C08001C100000600000000000008B
:102D70000000000007C0001FF00038180020080005
:102D8000200800200804101007FFF80FFFF00000D3
:102D9000100000000000000000000007C0001FF04D
:102DA0000012300022180022080022080032080019
:102DB0001E10000E20000000000000002000002077
:102DC0000800200801FFF803FFF806200804200887
:102DD000042008072000030000000000000000009D
:102DE000000E000E6E001FF30031B10020B1002074
:102DF000B1003191001F13002E1E00200E00300084
:102E000000000004000807FFF80FFFF8001008009A
:102E10002000002000002008003FF8001FF80000FC
:102E2000080000000000000000000020080020084A
:102E3000002008063FF8063FF800000800000800E0
:102E4000000800000000000000000000000000007A
:102E500003000003002001002001002003063FFEC4
:102E6000063FFC000000000000000000000000041D
:102E7000000807FFF80FFFF8000188000300002F8B
:102E8000C00038F8002038002008000008000000CA
:102E90000000000000000400080400080400080707
:102EA000FFF80FFFF800000800000800000800000D
:102EB00000000000002008003FF8003FF800100864
:102EC000002000003FF8003FF8001008002000003C
:102ED0003FF8003FF8000008000000002008003F15
:102EE000F8003FF800100800100000200000200843
:102EF000003FF8001FF8000008000000000000007C
:102F000007C0000FF0001830003008002008002033
:102F100008003008001830000FF00007C000000063
:102F2000000000002001003FFF003FFF00101100E3
:102F30002009002008002008003038001FF0000F92
:102F4000C00000000000000007C0001FF00038189B
:102F5000002008002008002009001011001FFF00B9
:102F60003FFF0000010000000020080020080020B2
:102F700008003FF8003FF80008080010080020088B
:102F800000200000300000300000000000000000C1
:102F90000000000C78001E180033080023080021F0
:102FA000080021880021980030F0003860000000FF
:102FB00000000000200000200000200000FFF003BF
:102FC000FFF8002008002008002008000030000062
:102FD00000000000000000002000003FF0007FF82B
:102FE000000018000008000008002010003FF80052
:102FF0007FF0000010000000000000002000003002
:1030000000003C00003F800023F0000078000070CA
:10301000002380003C000030000020000020000061
:103020003C00003FE00023F80000E0002700003EE5
:1030300000003FE00021F80001E0003E0000200019
:10304000000000002008002008003838003E68001A
:1030500027800003C8002CF8003838002018002012
:1030600008000000000000002000003003003C01C8
:10307000003F830023EC000070002380003C000030
:1030800020000020000000000000000000000038C8
:10309000080020380020F80023E8002F88003E08B0
:1030A0000038080020180000700000000000000038
:1030B00000000000000000000000000008000014F4
:1030C000001FF7FC30000620000200000000000096
:1030D00000000000000000000000000000000000F0
:1030E0000000FFFFFF0000000000000000000000E3
:1030F0000000000000000000000020000230000678
:103100001FF7FC0014000008000000000000000091
:103110000000000000000000000000180000600037
:1031200000400000400000200000100000080000E7
:103130000400000400000C0000100000000000006B
:10314000000000000000000000000000000000007F
:10315000000000000000000000000000000000006F
:10316000000000000000000000000000000000005F
:10317000000000000000000000000000000000004F
:10318000000000000000000000000000000000003F
:10319000000000000000000000000000000000002F
:1031A0000000000000000000000000FF8007000099
:1031B000FFFFC70000FFFFC70000FF8007000000FF
:1031C00000000000000000000000000000000000FF
:1031D00000000000000000000000000000000000EF
:1031E00000000000000000000000000000000000DF
:1031F0000000000000000000000000FF00000000D0
:10320000FF0000000000000000000000000000FFC0
:1032100000000000000000000000000000000000AE
:10322000000000000000000000000000000000009E
:10323000000000000000000000000000000000008E
:10324000000000000000000000000000010000007D
:10325000000301000000430F000000C37E000000D7
:10326000C3F0000000CF80000000FF00000003F367
:103270000700001FC33E0000FCC3F80000E0CFC001
:10328000000000FF00000003F30000001FC3000067
:1032900000FCC3000000E0C200000000C00000000D
:1032A0000080000000000000000000007000001F0F
:1032B000C07C00003FE07E00007FE00F00006070F7
:1032C000070000E070030000C038030003FFFFFFA9
:1032D000F003FFFFFFF000C01C030000E01C030030
:1032E00000700E0700007C0F8E00003C07FE0000FF
:1032F0000C03FC00000001E00000000000000000E2
:103300000000000000000000001FC00000003FE0BF
:1033100000000070F000000060300000004030004D
:103320000000403000000060300300007FF00F001C
:10333000003FE03C00000F00F000000003C0000070
:10334000000F000000003C00000000F0000000033F
:10335000C00000000F00600000000000000000003E
:1033600000000000000000000003F800000007FC5F
:103370000000000FFE00003F1E0F00007F9C0700B2
:103380000073F8030000E0F0030000C078030000C1
:10339000C0FE030000E1CF0300007FC78700007F6D
:1033A00083E700003E00FE000000007C00000000FB
:1033B000FC00000000000000000000000000000011
:1033C00000000000000000FF0000000000000000FE
:1033D00000000000000000000000000000000000ED
:1033E00000000000000000000000000000000000DD
:1033F00000000000000000000000000000000000CD
:1034000000000000000000000000000000000000BC
:10341000000000000000000000000000007FF0003D
:103420000003FFFE000007FFFF80001F0007C00031
:10343000380000F000600000300040000010000084
:10344000000000000000000000000000000000007C
:10345000000000000000000000000000000000006C
:10346000000000000000000000000000000000005C
:1034700000400000100070000030003C0000F00030
:103480001F8007C00007FFFF800001FFFE00000053
:103490007FF00000000000000000000000000000BD
:1034A000000000000000000000000000000000001C
:1034B000000000000000000000000000000000000C
:1034C00000000000000000000000000000000000FC
:1034D000000000000010000000001880000000192B
:1034E000800000000F00000000FE00000000FE0051
:1034F0000000000F0000000019800000001880008C
:1035000000001000000000000000000000000000AB
:1035100000000000000000000000000000000000AB
:103520000000000000000180000000018000000099
:103530000180000000018000000001800000000107
:1035400080000000FFFF000000FFFF00000001807E
:1035500000000001800000000180000000018000E8
:103560000000018000000001800000000000000059
:10357000000000000000000000000000000000004B
:1035800000000000000007100000000770000000AD
:1035900007C0000000000000000000000000000064
:1035A000000000000000000000000000000000001B
:1035B000000000000000000000000000000000000B
:1035C00000000000000000000000000000000000FB
:1035D0000000000000000000000001800000000169
:1035E00080000000018000000001800000000180D8
:1035F0000000000180000000018000000001800048
:103600000000018000000001800000000180000037
:103610000001800000000180000000018000000027
:10362000000000000000000000000000000000009A
:10363000000000000000000000000700000000077C
:103640000000000007000000000000000000000073
:10365000000000000000000000000000000000006A
:10366000000000000000000000000000000000005A
:10367000000000000000000000000000000000004A
:10368000000000000001800000000F800000007CAE
:1036900000000003F00000001F80000000FC00009C
:1036A0000007E00000003F00000000F800000000FC
:1036B000E00000000000000000000000000000002A
:1036C00000000000000000000000000000000000FA
:1036D00000000000000000000000000000000000EA
:1036E0000000000000000007FFF000001FFFFC00CA
:1036F000003FFFFE000078000E0000E00007000021
:10370000E000030000C000030000C000030000E070
:1037100000030000E00007000078001E00007FFFAB
:10372000FE00003FFFFC00000FFFF0000000000063
:103730000000000000000000000000000000000089
:1037400000000000000006000000000E0000000065
:103750000E000000000E000000001E000000003FF0
:10376000FFFF0000FFFFFF0000FFFFFF0000000061
:103770000000000000000000000000000000000049
:103780000000000000000000000000000000000039
:1037900000000000000000000000001F001F0000EB
:1037A0003F003F00007F007F00007000E30000E06A
:1037B00001C30000E003830000C007830000C00FC6
:1037C000030000E00E030000E01C03000078780313
:1037D00000007FF00300003FE00300000F800300C3
:1037E00000000000000000000000000000000000D9
:1037F00000006000001E007C00003E007E00007E95
:10380000001E00007000070000E000030000C03848
:10381000030000C038030000C038030000E0380394
:103820000000607C0700007FEE0E00003FCFFE002E
:10383000001F87FC00000003F000000000000000F3
:10384000000000000000000000000001C0000000B7
:1038500007C00000000EC00000003CC00000007067
:10386000C0000001E0C000000380C000000F00C0E5
:1038700000003C00C000007800C00000FFFFFF0017
:1038800000FFFFFF0000FFFFFF00000000C000007E
:103890000000C00000000000000000000000000068
:1038A00000000000000000000000783C00003FF82D
:1038B0003E0000FFF83E0000FC70070000E06003DF
:1038C0000000E0E0030000E0E0030000E0E00300AF
:1038D00000E0E0030000E070070000E0781E000058
:1038E000E03FFE0000E01FFC00000007E0000000D9
:1038F00000000000000000000000000000000000C8
:1039000000000007FFF000001FFFFC00003FFFFE6B
:10391000000078380F00007030070000E0600300FE
:1039200000C060030000C060030000E0600300000E
:10393000E07007000070780F00007C3FFE00003C44
:103940001FFC00000C0FF000000000000000000051
:1039500000000000000000000000000000E0000087
:103960000000E000000000E000030000E0003F0075
:1039700000E001FF0000E007FF0000E01FC00000C2
:10398000E07E000000E1F0000000E3C0000000E77E
:1039900000000000FE00000000F800000000F00041
:1039A0000000000000000000000000000000000017
:1039B000000000000000000003F800001F87FC006A
:1039C000007FCFFE00007FFC0F0000E078070000C2
:1039D000E038030000C030030000C030030000E006
:1039E00038030000E0780700007DFC0F00007FCF67
:1039F000FE00003F8FFC00000603F80000000000FE
:103A000000000000000000000000000000000000B6
:103A1000000FF81800003FFC1C00007FFE1E000095
:103A2000700E0F0000E007030000E007030000C075
:103A300007030000C007030000E006030000E006E3
:103A4000070000781C1E00007FFFFC00003FFFF80D
:103A500000000FFFE0000000000000000000000078
:103A60000000000000000000000000000000000056
:103A700003C007000003C007000003C007000000E8
:103A80000000000000000000000000000000000036
:103A90000000000000000000000000000000000026
:103AA0000000000000000000000000000000000016
:103AB0000000000000000000000000000000000006
:103AC0000000000000000000000003C00710000319
:103AD000C007700003C007C0000000000000000025
:103AE00000000000000000000000000000000000D6
:103AF00000000000000000000000000000000000C6
:103B000000000000000000000000000000000000B5
:103B100000000000000000000000000000000000A5
:103B2000038000000003C000000007C00000000682
:103B3000E00000000E600000000C700000001C306F
:103B400000000018380000003818000000301C0089
:103B50000000700C000000600E000000E006000095
:103B600000C007000001C0030000000000000000CA
:103B7000000000000000000000000C300000000CFD
:103B8000300000000C300000000C300000000C3051
:103B90000000000C300000000C300000000C300071
:103BA00000000C300000000C300000000C30000061
:103BB000000C300000000C300000000C3000000051
:103BC00000000000000000000000000000000000F5
:103BD00000000000C003000000E0060000006006D6
:103BE000000000700C000000300C000000381800CD
:103BF000000018180000001C300000000C3000000D
:103C0000000E60000000066000000007C000000019
:103C100003C00000000380000000018000000000DD
:103C2000000000000000000000000000000F000085
:103C300000003F000000007F00000000780000004E
:103C400000E000000000E001E70000C007E700001E
:103C5000C00FE70000C01F000000E03C0000007043
:103C6000780000007FF00000003FE00000001FC06F
:103C7000000000060000000000000000000000003E
:103C80000000003C00000001FF80000003C1E000D4
:103C9000000E007000001C0018000018000C00004E
:103CA000301FC40000207FE6000060F8E2000061E1
:103CB000C06300004380230000C300210000C60051
:103CC000610000C600610000C600C10000C603E13B
:103CD0000000C70FE1000000000000000000070026
:103CE0000000003F00000003FF0000001FF800007C
:103CF00000FFC0000007FF8000003FE1800000FEE1
:103D000001800000F001800000F001800000FE0151
:103D10008000007FE18000000FFF80000000FFC0F6
:103D20000000001FF800000003FF000000007F00FB
:103D30000000000000000000000000000000000083
:103D4000FFFFFF0000FFFFFF0000FFFFFF0000C0BC
:103D500038030000C038030000C038030000C0383A
:103D6000030000C038030000E038030000E038071B
:103D70000000F07C0700007FFE0E00007FCFFE00F9
:103D8000001F87FC00000003F0000000000000009E
:103D9000000000000003FFC000001FFFF800003F0C
:103DA000FFFC00007C003E0000F0000F0000E0007F
:103DB000070000C000030000C000030000C00003B3
:103DC0000000C000030000C000030000E000070086
:103DD00000F0001E00007E01FE00003E01FC00001D
:103DE0000E01F000000000000000000000000000D4
:103DF00000000000FFFFFF0000FFFFFF0000FFFFCB
:103E0000FF0000C000030000C000030000C000036A
:103E10000000C000030000C000030000C000030059
:103E200000E000070000E00007000070000E000046
:103E300078001E00003F80FC00001FFFF80000001B
:103E40000000000000000000000000000000FFFF74
:103E5000FF0000FFFFFF0000FFFFFF0000C038036E
:103E60000000C038030000C038030000C038030061
:103E700000C038030000C038030000C03803000051
:103E8000C038030000C038030000C0000300000079
:103E90000000000000000000000000000000000022
:103EA0000000000000000000FFFFFF0000FFFFFF18
:103EB0000000FFFFFF0000C038000000C038000015
:103EC00000C038000000C038000000C0380000000A
:103ED000C038000000C038000000C038000000C03A
:103EE000380000000000000000000000000000009A
:103EF0000000000000000000000000000003FFC000
:103F000000000FFFF800003FFFFC00007C003E00B7
:103F100000F0000F0000E000070000C000030000F8
:103F2000C000030000C00C030000C00C030000C070
:103F30000C030000C00C030000E00C060000780C2D
:103F40001E00007E0FF800003E0FFF000000000082
:103F5000000000000000000000000000FFFFFF0064
:103F600000FFFFFF0000FFFFFF0000003000000027
:103F700000300000000030000000003000000000B1
:103F80003000000000300000000030000000003071
:103F900000000000300000000030000000FFFFFFC4
:103FA0000000FFFFFF000000000000000000000014
:103FB0000000000000000000000000FFFFFF000004
:103FC000FFFFFF00000000000000000000000000F4
:103FD00000000000000000000000000000000000E1
:103FE00000000000000000000000000000000000D1
:103FF00000000000000000000000000000000000C1
:104000000000000000000000FC00000000FE0000B6
:104010000000FF0000000007000000000300000097
:104020000003000000000300000000030000000087
:10403000070000FFFFFF0000FFFFFE0000FFFFFC86
:104040000000000000000000000000000000000070
:104050000000000000000000000000000000000060
:1040600000000000000000000000FFFFFF0000FF54
:10407000FFFF0000FFFFFF0000000E000000003CFB
:10408000000000007800000000FC00000001FE00BD
:104090000000079F8000000F07C000001E03F00013
:1040A000007C00FC0000F8007E0000E0001F000023
:1040B000C000070000000000000000000000000039
:1040C00000000000FFFFFF0000FFFFFF0000FFFFF8
:1040D000FF000000000300000000030000000003D8
:1040E00000000000030000000003000000000300C7
:1040F00000000003000000000300000000030000B7
:1041000000000300000000030000000000000000A9
:104110000000000000000000000000000000FFFFA1
:10412000FF0000FFFFFF0000FFFFFF0000F00000A6
:104130000000FF000000003FE000000007FE00005C
:1041400000007FC00000000FF800000000FF00002A
:1041500000001F000000001F00000000FF00000022
:104160000FF80000007FC000000000000000000009
:104170000000000000000000FFFFFF0000FFFFFF45
:104180000000FFFFFF0000F000000000FE00000044
:10419000003F8000000007F000000001FC0000006C
:1041A000003F800000000FE000000001FC00000064
:1041B000003F000000000F0000FFFFFF0000FFFFB6
:1041C000FF00000000000000000000000001FF8070
:1041D00000000FFFF000003FFFFC00007E007E00AB
:1041E0000070000E0000E000070000C000030000A7
:1041F000C000030000C000030000C000030000C0B6
:1042000000030000C000030000E000070000F00011
:104210000E00007E007E00003FFFFC00000000005A
:10422000000000000000000000000000FFFFFF0091
:1042300000FFFFFF0000FFFFFF0000C01C000000A8
:10424000C01C000000C01C000000C01C000000C01A
:104250001C000000C01C000000E01C000000E01C6E
:10426000000000703800000078F80000003FF00007
:1042700000001FE00000000000000000000000003F
:104280000003FF8000000FFFF000003FFFFC000074
:104290007E007E0000F0000E0000E000070000C07D
:1042A00000030000C000030000C000030000C000C5
:1042B000030000C000330000C0003B0000E0001F0E
:1042C000000070001E00007F00FE00003FFFFF00A6
:1042D00000000000000000000000000000000000DE
:1042E000FFFFFF0000FFFFFF0000FFFFFF0000C017
:1042F0001C000000C01C000000C01C000000C01C0E
:10430000000000C01C000000C01C000000E01C00F9
:104310000000E01C000000E03E000000707F000094
:10432000007FE7FE00003FC7FF0000000000000024
:1043300000000000000F00F800003FC0FC00007FFC
:10434000E0FE0000F9F00F0000E070070000C07010
:10435000030000C038030000C038030000C0380369
:104360000000C01C030000C01C030000E01E07008A
:10437000007C0F0E00007C0FFE00003C07FC0000DC
:104380000003F000000000000000C000000000C0BA
:1043900000000000C000000000C000000000C000DD
:1043A000000000C000000000C000000000FFFFFF90
:1043B0000000FFFFFF0000FFFFFF0000C000000043
:1043C00000C000000000C000000000C000000000AD
:1043D000C000000000C0000000000000000000005D
:1043E0000000000000000000000000000000FFFFCF
:1043F000F80000FFFFFC0000FFFFFE000000000FC0
:10440000000000000700000000030000000003009F
:104410000000000300000000030000000003000093
:104420000000030000000007000000000F0000FF74
:10443000FFFE0000FFFFFC00000000000000E000A5
:10444000000000FC00000000FFC00000001FF8009A
:10445000000003FF000000003FE000000007FC0038
:104460000000007F000000000F000000000F0000AF
:1044700000007F00000007FC0000003FE000000398
:10448000FF0000001FF8000000FFC0000000FE0059
:104490000000000000000000F000000000FF00002D
:1044A0000000FFF00000001FFF00000001FFF80007
:1044B00000000FFF000000007F000000000F000060
:1044C0000001FF0000001FFC000001FFC000003FD2
:1044D000FC000000FFC0000000F800000000FE002B
:1044E000000000FFE00000001FFF000000000000CF
:1044F00000008000030000E000070000F0001F0043
:1045000000FC003F00003E00FC00000F83F00000B4
:1045100007C7C0000001FF800000007E000000000F
:104520007E00000001FF80000007E7C000000F834D
:10453000F000003E00FC0000FC003F0000F0001F07
:104540000000E0000700000000000000C0000000C4
:1045500000F000000000FC000000003F0000000030
:104560001F8000000007E000000001F800000000CC
:104570007FFF0000001FFF0000001FFF0000007F02
:10458000FF000001F800000007E00000001F8000AD
:1045900000003F00000000FC00000000F0000000F0
:1045A000000000000000C000070000C0001F000065
:1045B000C0003F0000C000FB0000C001E30000C0DD
:1045C00007C30000C00F030000C03E030000C07816
:1045D000030000C1F0030000C3C0030000CF80034C
:1045E0000000DE00030000FC00030000F0000300F8
:1045F00000E00003000000000000000000000000D8
:104600000000000000000000000000000000007F2B
:10461000FFFFF0007FFFFFF000600000100060006F
:10462000001000600000100060000010000000009A
:10463000000000000000000000000000000000007A
:10464000000000000000000000000000000000006A
:104650000000000000F0000000007C000000000FDF
:104660008000000001F0000000007C000000000F4E
:104670008000000003F0000000007E000000000F3A
:104680000000000003000000000000000000000027
:10469000000000000000000000000000000000001A
:1046A000000000000000000000000000000000000A
:1046B000000000000000000000600000100060002A
:1046C000001000600000100060000010007FFFFF7D
:1046D000F0007FFFFFF0000000000000000000007D
:1046E00000000000000000000000000000000000CA
:1046F00000000000000000000000000000000000BA
:104700000000000000000000000000000000100099
:1047100000000030000000007000000001E0000018
:104720000001C000000001C000000001E000000026
:1047300000F0000000003000000000100000000049
:104740000000000000000000000000000000000069
:104750000000000000000000000000000000000059
:1047600000000000000030000000003000000000E9
:104770003000000000300000000030000000003079
:104780000000000030000000003000000000300099
:104790000000003000000000300000000030000089
:1047A0000000300000000030000000003000000079
:1047B0000030000000003000000000300000000069
:1047C000000100000000018000000001C0000000A6
:1047D00001E000000000F000000000700000000098
:1047E00010000000000000000000000000000000B9
:1047F00000000000000000000000000000000000B9
:1048000000000000000000000000000000000000A8
:1048100000000000000000000000000000007C001C
:104820000000E0FE000001E1FF00000381C700007E
:1048300003038300000303030000030303000003DA
:1048400006030000030606000003CFFC000001FF82
:10485000FE000000FFFF0000000003000000000356
:104860000000000000000000000000000000000048
:104870000000000000000000000000000000000038
:10488000FFFFFF0000FFFFFF000000F01C00000121
:104890008006000003000300000300030000030083
:1048A0000300000300030000038003000003C00FA7
:1048B000000001FFFE000000FFFC0000003FE000E0
:1048C00000000000000000000000000000000000E8
:1048D0000000000000007FF8000000FFFC00000165
:1048E000FCFE000003C007000003000300000300FB
:1048F0000300000300030000030003000003800323
:10490000000003C00F000001F03E000000F03C007A
:104910000000002000000000000000000000000077
:104920000000000000000000000000000000000087
:104930003FF8000000FFFE000001FFFE000003C082
:10494000070000030003000003000300000300034E
:1049500000000300030000030003000001C0060084
:1049600000FFFFFC0000FFFFFF0000FFFFFF000053
:104970000000000000000000000000000000000037
:10498000000000000000000000003FF8000000FFF1
:10499000FE000001FFBE00000386070000030603BF
:1049A00000000306030000030603000003060300E3
:1049B00000038607000001FE3E000000FE3E0000EE
:1049C000003E380000000000000000000000000071
:1049D00000000000000000000003000000000300D1
:1049E00000000003000000001FFFFF00007FFFFF2A
:1049F0000000FFFFFF0000E300000000C300000014
:104A000000C30000000000000000000000000000E3
:104A10000000000000000000000000000000000096
:104A20000000000000000000000000000000000086
:104A300000000000000000000000000000003FF047
:104A4000800000FFFCE00001FFFEF00003C00F301B
:104A500000030003300003000330000300033000B4
:104A60000300033000030002300001800E700000DC
:104A7000FC7FE00003FFFFE00003FFFF8000000079
:104A80000000000000000000000000000000000026
:104A9000000000000000000000000000FFFFFF0019
:104AA00000FFFFFF000000E00000000180000000A8
:104AB00003000000000300000000030000000003EA
:104AC00000000000030000000003E000000003FFFE
:104AD000FF000001FFFF00000000000000000000D8
:104AE00000000000000000000000000000000000C6
:104AF000000000000000E3FFFF0000E3FFFF0000F4
:104B000000000000000000000000000000000000A5
:104B10000000000000000000000000000000000095
:104B20000000000000000000000000000000000085
:104B30000000000000000000000000000000000075
:104B40000000000000000000003000000000300005
:104B5000E3FFFFF000E3FFFFE00003FFFFC0000002
:104B60000000000000000000000000000000000045
:104B70000000000000000000000000000000000035
:104B80000000000000000000000000000000000025
:104B90000000000000000000000000000000000015
:104BA00000000000000000000000FFFFFF0000FF09
:104BB000FFFF000000038000000007000000000E5F
:104BC000000000001F800000003FE0000000F1F046
:104BD000000001E07C000003C03F000003800F00E4
:104BE00000020003000000000000000000000000C0
:104BF00000000000000000000000000000000000B5
:104C000000000000FFFFFF0000FFFFFF00000000AA
:104C10000000000000000000000000000000000094
:104C20000000000000000000000000000000000084
:104C30000000000000000000000000000000000074
:104C40000000000000000000000000000000000064
:104C5000000000000000000000000000000003FF52
:104C6000FF000003FFFF000000FFFF0000018000C5
:104C7000000001000000000300000000030000002D
:104C8000000300000000030000000003C00000005B
:104C900001FFFF000000FFFF000000E00000000136
:104CA0008000000003000000000000000000000081
:104CB000000000000000000003FFFF000003FFFFF2
:104CC000000000E000000001800000000300000080
:104CD00000030000000003000000000300000000CB
:104CE000030000000003E000000003FFFF000001DC
:104CF000FFFF0000000000000000000000000000B6
:104D000000000000000000000000000000003FF074
:104D1000000000FFFC000001FFFE000001C00F00CA
:104D200000038003000003000300000300030000F1
:104D300003000300000300030000038003000001E0
:104D4000C00F000001FFFE000000FFFC0000003F5C
:104D5000F000000000000000000000000000000063
:104D600000000000000000000000000003FFFFF052
:104D70000003FFFFF00001F87C0000038006000044
:104D800003000700000700030000070003000007FE
:104D900000030000030007000003C01E000001FF25
:104DA000FE000000FFF80000003FE00000000000EF
:104DB00000000000000000000000000000000000F3
:104DC00000001FE0000000FFFC000001FFFE0000EB
:104DD00003C00E000003800700000300030000036F
:104DE0000003000003000300000300020000018034
:104DF00006000000F87C000003FFFFF00003FFFF47
:104E0000F0000000000000000000000000000000B2
:104E10000000000000000000000000000000000092
:104E200003FFFF000003FFFF000003FFFF0000007F
:104E3000C0000000018000000003800000000300AB
:104E4000000000030000000003000000000000005C
:104E50000000000000000000000000000000000052
:104E60000000000000000000000000000000000042
:104E7000000010000000FC1C000001FE1E000003EA
:104E8000FE070000030E03000003070300000303F6
:104E9000030000030383000003038300000381C3B6
:104EA000000001E1FE000001E0FE000000607C0067
:104EB00000000000000000000000000000000000F2
:104EC00000000000000300000000030000000003D9
:104ED000000000007FFFFE00007FFFFF00007FFF5B
:104EE000FF000003000300000300030000030003B1
:104EF00000000000000000000000000000000000B2
:104F000000000000000000000000000000000000A1
:104F10000000000000000000000000000000000091
:104F2000000000000000000000000000000003FF7F
:104F3000FE000003FFFF000003FFFF00000000036E
:104F40000000000003000000000300000000030058
:104F5000000000020000000006000003FFFF000048
:104F600003FFFF000003FFFF00000000000000003F
:104F700000000000000000000000000000000380AE
:104F800000000003F000000001FE000000003FC030
:104F900000000007F8000000007F000000000F0084
:104FA0000000000F000000007F00000007F8000074
:104FB000003FC0000003FE00000003F000000003FB
:104FC0008000000000000000000000000000000061
:104FD0000000000000000000038000000003F80053
:104FE000000003FF000000003FF000000003FE008F
:104FF0000000003F000000000700000000FF00006C
:10500000001FF0000003FE00000003E000000003AA
:10501000C000000003FE000000001FF000000000C0
:10502000FF000000000F000000001F000000000053
:1050300000000200030000038007000003C01F00FF
:105040000001F03C00000078F80000003FE00000A4
:10505000000FC00000000FC00000001FE0000000B3
:105060007CF8000000F03C000003E01F000003801B
:105070000700000300030000000000000000000023
:1050800000000000000000020000000003C000302B
:105090000003F800300001FF003000003FE0300066
:1050A0000003FC700000007FE000000007C000006B
:1050B000003F00000001FC0000001FE0000000FFB6
:1050C00000000003F800000003C00000000300001F
:1050D00000000000000000000000000000000000D0
:1050E000000000000000030007000003000F0000A4
:1050F00003003F000003007B00000301E300000306
:1051000003C30000030F030000031E030000037C21
:1051100003000003F003000003E00300000380032A
:10512000000000000000000000000000000000007F
:10513000000000000000000000000000040000006B
:1051400000040000000004000000001B0100007FBC
:10515000FBFFC0007FF1FFC000C0000060008000C6
:10516000002000800000200000000000000000007F
:10517000000000000000000000000000000000002F
:10518000000000000000000000000000000000001F
:10519000000000000000000000000000000000000F
:1051A00000000000FFFFFFF000FFFFFFF000FFFF27
:1051B000FFF0000000000000000000000000000000
:1051C00000000000000000000000000000000000DF
:1051D00000000000000000000000000000000000CF
:1051E00000000000000000000000000000000000BF
:1051F0000000000080000020008000002000E0404F
:1052000000C0007FF1FFC0003FFBFF8000000B00EB
:105210000000000400000000040000000004000082
:10522000000000000000000000000000000000007E
:10523000000000000000000000000000000000006E
:1052400000000000000000000000000180000000DD
:105250000F800000007C00000003F00000001F80B1
:10526000000000FC00000007E00000003F0000001C
:1052700000F800000000E000000000000000000056
:10528000000000000000000000000000000000001E
:10529000000000000000000000000000000000000E
:1052A00000000000000000000000000001020304F4
:1052B00006070809A0860100400D0300801A0600B9
:1052C00000350C0040420F0080841E0000093D00A4
:1052D00000127A000024F40000366E010048E80154
:1052E000006CDC0204530008000000203C010000B8
:1052F0002C020008BC5300083C010020A408000058
:105300008016000832F02904811202121112041AC8
:10531000780812363A03101A3A081A05081AB20821
:105320005A0C042112033A330412021AB7081A72F3
:10533000081ABB081A3D081AC2081A01081AC3083D
:105340001A19081AC4081A20081AC6081A0F081AC7
:10535000D0081AA4041AA10C1AE0081A70041A043E
:10536000041A08045A09041A05045A2A641A410442
:105370001A07045A13041A29041A2F3C5AE13C292B
:105380000229345A0A081A06041A2B049A343C1AC1
:1053900012041A14041A28041A2E3C1A21041A2979
:1053A00004296429CC69041AEF14293CE9141A2C45
:0C53B000D2220113093D3210190A5100ED
:04000005080001AD41
:00000001FF
