:020000040800F2
:10000000100400200101000895090008910900086A
:10001000930900086D010008290A0008000000008B
:100020000000000000000000000000009909000826
:100030006F01000800000000970900089B090008F4
:100040001B0100081B0100081B0100081B01000820
:100050001B0100081B0100081B0100081B01000810
:100060001B0100081B0100081B0100081B01000800
:100070001B0100081B0100081B0100081B010008F0
:100080001B0100081B0100081B0100081B010008E0
:100090001B0100081B0100081B0100081B010008D0
:1000A0001B0100081B0100081B0100081B010008C0
:1000B0001B0100081B010008000000001B010008D4
:1000C0001B01000800000000000000001B010008E8
:1000D000000000001B0100081B01000800000000D8
:1000E0001B0100081B0100081B010008DFF80CD0F1
:1000F00000F02AF8004800476D0A000810040020AC
:100100000648804706480047FEE7FEE7FEE7FEE7B1
:10011000FEE7FEE7FEE7FEE7FEE7FEE7E10900088F
:10012000ED000008D2B201E000F8012B491EFBD21D
:1001300070470022F6E710B513460A4604461946F2
:10014000FFF7F0FF204610BD064C074D06E0E068C3
:1001500040F0010394E8070098471034AC42F6D30E
:10016000FFF7C8FFF00A0008100B0008FEE7704711
:1001700070B5044600F004F90546601C02D004483E
:100180000078044400F0FCF8401BA042FAD370BD94
:10019000000000202DE9F84FDFF8B091002409F1AC
:1001A000040A0AF1040B23460F270BF1040EC6E0E4
:1001B0000125A5402A40AA427DD1654ED1F804C050
:1001C000ACEB0608B44532D014DCBCF1030F3AD0D6
:1001D00009DCBCF1000F2AD0BCF1010F1CD0BCF12E
:1001E000020F31D11DE0BCF1110F17D0BCF1120F7D
:1001F0002AD119E0B8F5881F19D006DCB8F5803F80
:1002000015D0B8F5801F1FD111E0B8F5001F0ED032
:10021000B8F5041F18D10AE0CB6815E0CB681B1DA8
:1002200012E0CB6808330FE0CB680C330CE08B682E
:100230002BB1012B4FF0080303D0456104E00423E8
:1002400002E0056100E00023FF2A01D8064601E034
:1002500000F104064FEA840501D9A5F12005D6F87E
:10026000008007FA05FC28EA0C0803FA05F548EABD
:100270000508C6F800804D68ED005FD5354DAE69C4
:1002800046F00106AE61AD6924F0030605F00105F4
:100290000095314D06EB050CDCF80850A607360F2B
:1002A00007FA06F825EA0805DFF8B080404503D1D3
:1002B0004FF0000810E041E0DFF8A480404502D193
:1002C0004FF0010808E0DFF89C80404502D14FF074
:1002D000020801E04FF0030808FA06F848EA0508AA
:1002E000CCF808804D68D9F80060ED03002D4D462C
:1002F00001DA164300E096432E604D68DAF800609C
:10030000AD03002D554601DA164300E096432E60FA
:100310004D68DBF80060ED02002D5D4601DA164302
:1003200000E096432E604D68DEF80060AD02002DBF
:10033000754601DA164300E096432E60641C0A6895
:1003400032FA04F57FF434AFBDE8F88F00040140C1
:1003500000001110001002400000014000080140A0
:10036000000C014000100140C2680A4201D0416106
:100370007047016170470AB1016170470904FBE7EA
:100380000148806870470000000000200248816832
:10039000027811448160704700000020074810B5C2
:1003A000016841F010010160032000F067F80020AF
:1003B00000F006F800F024F8002010BD00200240F4
:1003C00070B50D4D04464FF47A712878B1FBF0F00A
:1003D0000A490968B1FBF0F000F0C6FA48B9102CE0
:1003E00007D200222146501E00F028F800206C6041
:1003F00070BD012070BD0000000000200C00002036
:100400000C4808B5816941F001018161816901F001
:1004100001010091C16941F08051C161C06900F0E2
:10042000805000900448416821F0E06141F0806113
:10043000416008BD0010024000000140F0B40E4BC6
:100440001B680C46C3F30223C3F10705042D00D932
:100450000425191D072901D2002300E0DB1E012617
:1004600006FA05F1491E214099409E40761E16402D
:100470003143F0BC00F0DABA0CED00E0064900F0C0
:10048000070208684FF6FF03184040EA0220034ABB
:1004900010430860704700000CED00E00000FA0512
:1004A0002DE9F0470F46050061D0434E306800F05B
:1004B0000700B84209D2306820F0070038433060A6
:1004C000306800F00700B84251D128683B4C8107E2
:1004D00012D5400703D5606840F4E060606028787A
:1004E000000703D5606840F4605060606068A968E8
:1004F00020F0F000084360602878C00728D06868C2
:10050000012810D02168022810D0890700292EDA8E
:10051000616821F0030101436160FFF731FF80460C
:1005200041F288390DE021688903EFE78901EDE7A1
:10053000FFF726FFA0EB0801494502D90320BDE8DB
:10054000F0876068696800F00C00B0EB810FEFD1B4
:10055000306800F00700B8420BD9306820F007007F
:1005600038433060306800F00700B84201D0012005
:10057000E5E72878400705D56068E96820F4E06081
:10058000084360602878000706D56068296920F470
:10059000605040EAC100606000F018F86168084AE5
:1005A000C1F30311515CC840064908600648006861
:1005B000FFF706FF0020C2E70020024000100240C3
:1005C000E00A00080C0000200400002014A185B0FF
:1005D000D1E90023D1E90201CDE9020114A0CDE95E
:1005E0000023144A006804905168134801F00C037A
:1005F000042B10D0082B0ED1C1F38343C9031DF87F
:1006000003000AD5516804AAC1F34041515C0A4A6B
:100610005043B0FBF1F005B0704708494843FAE792
:1006200002030405060708090A0B0C0D0E0F101033
:10063000010200000010024000127A0000093D0093
:100640002DE9F84F040070D02078C24DC00749D082
:100650006868C0F38100012807D06868C0F3810092
:10066000022809D16868C00306D52868800339D5F7
:1006700060680028E7D035E06068B0F5803F0BD0B7
:1006800010B1B0F5A02F11D0286820F48030286078
:10069000286820F4802002E0286840F48030286038
:1006A000606890B1FFF76CFE06460AE0286840F4E7
:1006B00080202860F0E700BFFFF762FE801B6428FF
:1006C00074D828688003F7D50CE0FFF759FE06467A
:1006D00005E000BFFFF754FE801B6428F0D82868AF
:1006E0008003F7D420789C4E80074FF001094FF02B
:1006F000000839D5686810F00C0F07D06868C0F39F
:100700008100022809D16868C00306D428688007E0
:1007100014D52069012808D110E02069B0B1C6F8CD
:100720000090FFF72DFE074605E00EE1FFF728FEDB
:10073000C01B0228C4D828688007F7D528686169DB
:1007400020F0F80040EAC10028600DE0C6F8008003
:10075000FFF716FE074604E0FFF712FEC01B022853
:10076000AED828688007F7D4207800072ED57B48BC
:10077000A169E1B1C0F80090FFF702FE074604E06E
:10078000FFF7FEFDC01B022810D8686A8007F7D566
:1007900073484FF4FA510068B0FBF1F0009000BFCD
:1007A0000098411E00910028F9D10FE082E0C0F8C6
:1007B0000080FFF7E5FD074605E000BFFFF7E0FD1D
:1007C000C01B022876D8686A8007F7D420784007D3
:1007D00061D5E8690027C00008D4E86940F080507E
:1007E000E861E869012700F0805000905D480168E9
:1007F000C90513D40168834641F480710160FFF795
:10080000BFFD824606E000BFFFF7BAFDA0EB0A007D
:1008100064284FD8DBF80000C005F5D5E068012852
:100820000AD008B1052813D0286A20F001002862F8
:10083000286A20F0040002E0286A40F001002862E3
:10084000E06841F2883B98B1FFF79AFD82460BE0E1
:10085000286A40F004002862EEE700BFFFF790FD31
:10086000A0EB0A0159455CD8286A8007F6D50CE050
:10087000FFF786FD824605E0FFF782FDA0EB0A0147
:1008800059454ED8286A8007F6D4012F03D1E8696C
:1008900020F08050E861E06990B36968C1F381019C
:1008A000022945D00228C6F8608004D0FFF768FD11
:1008B000044639E035E0FFF763FD074605E000BF79
:1008C000FFF75EFDC01B02282BD828688001F7D4F3
:1008D000206AB0F5803F05D16868A16820F4003037
:1008E00008436860D4E908010843696821F4741179
:1008F00008436860C6F86090FFF742FD044606E0D2
:1009000025E000BFFFF73CFD001B022809D828683E
:100910008001F7D51BE000BFFFF732FD001B022866
:1009200002D90320BDE8F88F28688001F4D40EE0D6
:100930000128F7D06868226A00F48031914204D11E
:10094000616A00F47010884201D00120EAE70020BB
:10095000E8E70000001002400000424280044242EA
:100960000C0000200070004010B5401EB0F1807FE8
:1009700001D3012010BD4FF0E02460610F2160170A
:1009800000F054F80020A06107202061002010BD75
:10099000FEE7FEE7704770477047FFF7F7BC10B5FA
:1009A00090B028216846FFF7C4FB14210AA8FFF77E
:1009B000C0FB02200090012004901020002405902C
:1009C00007946846FFF73CFE0F20CDE90A040C941B
:1009D0000D9400210AA80E94FFF762FD10B010BD1F
:1009E0000D48016841F00101016041680B4A114066
:1009F000416001680A4A11400160016821F48021C8
:100A00000160416821F4FE0141604FF41F018160E3
:100A10000449C00308607047001002400000FFF85E
:100A2000FFFFF6FE08ED00E0FEE700000907090EF3
:100A3000002801DB034A02E0034A00F00F00815462
:100A40007047000000E400E014ED00E002E008C898
:100A5000121F08C1002AFAD170477047002001E038
:100A600001C1121F002AFBD17047000086B0FFF7BA
:100A700095FCFFF794FF0025174800950195029516
:100A80000395816941F020018161816901F02001B4
:100A90000491816941F00801816180690F4C00F087
:100AA00008000122049011462046FFF764FC012053
:100AB0000090CDE901050220039069462046FFF72A
:100AC00069FB4FF4FA7501212046FFF74DFC2846DB
:100AD000FFF74EFBF7E7000000100240000C01405A
:100AE00000000000000000000102030406070809DE
:100AF000100B000800000020100000004C0A000845
:100B0000200B000810000020000400005C0A000810
:100B10000100000010000000000000000024F400AC
:04000005080000ED02
:00000001FF
